:020000040800F2
:100000003006002045010008FD020008FF0200083C
:1000100003030008070300080B03000800000000AA
:100020000000000000000000000000000F030008B6
:100030001103000800000000130300081503000866
:100040005F0100085F0100085F0100085F01000810
:100050005F0100085F0100085F0100085F01000800
:100060005F0100085F0100085F0100085F010008F0
:100070005F0100085F0100085F0100085F010008E0
:100080005F0100085F0100085F0100085F010008D0
:100090005F0100085F0100085F0100085F010008C0
:1000A0005F0100085F0100085F0100085F010008B0
:1000B0005F0100085F0100085F0100085F010008A0
:1000C0005F0100085F0100085F0100085F01000890
:1000D0005F0100085F0100085F0100085F01000880
:1000E0005F0100085F0100085F0100085F01000870
:1000F0005F0100085F0100085F0100085F01000860
:100100005F0100085F0100085F0100085F0100084F
:100110005F0100085F0100085F0100085F0100083F
:100120005F0100085F0100085F0100085F0100082F
:10013000DFF80CD001F060FC004800471102000815
:10014000300600200648804706480047FEE7FEE7E5
:10015000FEE7FEE7FEE7FEE7FEE7FEE7FEE7FEE777
:100160009D1800083101000810B532A001F076FC9E
:10017000002413E033490C550846015D32A001F01C
:100180006DFCE11704EB11710911A4EB01110F29AA
:1001900002D12FA001F062FC601C84B2FF2CE9DDCB
:1001A0004FF480720021274800F061FA29A001F085
:1001B00055FC4FF4807200212A4800F022FB0024F5
:1001C00020E02848005D1F49095D884208D0254885
:1001D000015D1DA001F042FC23A001F03FFC10BD19
:1001E0002048015D18A001F039FCE11704EB117102
:1001F0000911A4EB01110F2902D115A001F02EFC69
:10020000601C84B2FF2CDCDD21A001F027FCE6E7B6
:1002100010B500F081F800F0B5F924A12E4800F0E7
:10022000F2F82EA12C4800F0EEF8FFF79DFF00BF7A
:10023000FEE70000D0B4C8EBB5C4CAFDBEDD0A0DB0
:1002400000000000300000203078253032582000B7
:100250000A0D00000A0DB6C1B3F6B5C4CAFDBEDD75
:100260000A0D000030010020B4EDCEF33A493243CC
:1002700020454550524F4DD0B4C8EBD3EBB6C1B377
:10028000F6B5C4CAFDBEDDB2BBD2BBD6C20A0D00F4
:10029000493243284154323443303229B6C1D0B4B4
:1002A000B2E2CAD4B3C9B9A60A0D00000D0A20D51E
:1002B000E2CAC7D2BBB8F6493243CDE2C9E8284109
:1002C00054323443303229B6C1D0B4B2E2CAD4C0B9
:1002D000FDB3CC200D0A0000003801400D0A202893
:1002E0004A756E2031342032303132202D203138A1
:1002F0003A31313A313229200D0A0000704700BFEF
:10030000FEE700BFFEE700BFFEE700BFFEE7704765
:10031000704770477047000000B585B0012144F276
:10032000040000F051FC4FF40070ADF810001820EC
:100330008DF8130003208DF8120004A9734800F013
:1003400005FD4FF48060ADF8100004208DF8130017
:1003500004A96E4800F0FAFC4FF4E1300090002050
:10036000ADF80400ADF80600ADF80800ADF80C00DB
:100370000C20ADF80A006946654800F06EFE0121C8
:10038000634800F0F5FE05B000BD70B504460D46AB
:10039000E1B25F4800F05BFF00BF5D48008810F0ED
:1003A000800FFAD0204670BDF0B5034600270E46F8
:1003B0000A2A03D0002030700846F0BD33B930203F
:1003C00006F8010B002030700846F6E7002B03DA30
:1003D0002D2006F8010B5B4242F210740DE093FBF6
:1003E000F4F505B937B105F1300006F8010B05FB4E
:1003F000143301270A2094FBF0F4002CEFDC0020DA
:1004000030700846D9E70FB470B586B004460CA822
:10041000019073E00B9800785C281CD10B98401C6D
:100420000B9000786E2809D072280FD10D2120463C
:1004300000F00DFF0B98401C0B900BE00A212046AA
:1004400000F005FF0B98401C0B9003E00B98401C3C
:100450000B9000BF4BE00B980078252840D10B98FB
:10046000401C0B900078642818D0732833D1019871
:1004700020C801900BE02978204600F0E8FE00BF7C
:100480004021204600F051FF0028F9D06D1C28784B
:100490000028F0D10B98401C0B9020E0019840C838
:1004A00001900A2202A93046FFF77EFF02AD0BE061
:1004B0002978204600F0CBFE00BF4021204600F006
:1004C00034FF0028F9D06D1C28780028F0D10B9853
:1004D000401C0B9003E00B98401C0B9000BF06E003
:1004E0000B9810F8011B0B90204600F0B0FE00BFE7
:1004F0004021204600F019FF0028F9D00B98007821
:10050000002887D106B070BC5DF814FB00080140DC
:100510000038014008B50121082000F055FB0121F9
:10052000480500F05EFBC020ADF8000003208DF808
:1005300002001C208DF803006946E94800F006FC23
:1005400008BD1FB50020ADF804004BF6FF70ADF8F4
:100550000600A020ADF808004FF48060ADF80A0056
:100560000001ADF80C00DF4800900121DE4800F0EA
:10057000D0FF6946DC4800F04AFF0121DA4801F06B
:1005800004F81FBD10B5FFF7C5FFFFF7DAFFA02085
:10059000D649088010BD10B5002400BF0121D24803
:1005A00000F0DBFF1421D04801F038F804460022A7
:1005B000CE480088C1B2CC4801F027F81421CA48BF
:1005C00001F02CF810F0020FE8D0C949C64801F03C
:1005D000DAF80121C44800F0CCFF10BD70B5044624
:1005E0000D46164600BF4FF40031BF4801F0B6F883
:1005F0000028F8D10121BC4800F0AFFF00BFBD4981
:10060000B94801F089F80028F9D00022B7480088DD
:10061000C1B2B54800F0F9FF00BFB749B24801F0D8
:100620007BF80028F9D02946AF4800F0E8FF00BF6A
:10063000B149891CAC4801F06FF80028F8D00CE0F3
:100640002178A94800F0DBFF641C00BFAA49891C7F
:10065000A54801F061F80028F8D03000A6F10101AA
:10066000CEB2EDD10121A04800F083FF70BD2DE98D
:10067000F04704460D4616460027B846B946BA4626
:100680002846E91705EB5171C910A5EBC10101F02E
:10069000FF09C9F1080000F0FF0A3046F11706EB28
:1006A0005171C1F3C707F11706EB5171C910A6EBE1
:1006B000C10101F0FF08B9F1000F24D13FB9424652
:1006C00029462046FFF78AFFFFF765FF5EE00AE054
:1006D000082229462046FFF781FFFFF75CFF05F15E
:1006E0000800C5B208343800A7F10101CFB2EFD13C
:1006F000B8F1000F4AD0424629462046FFF76EFF68
:10070000FFF749FF42E03FB9424629462046FFF73E
:1007100065FFFFF740FF39E0A6EB0A0086B23046DE
:10072000F11706EB5171C1F3C707F11706EB5171D1
:10073000C910A6EBC10101F0FF08BAF1000F0AD001
:10074000524629462046FFF749FFFFF724FF05EBF5
:100750000A00C5B254440AE0082229462046FFF7A1
:100760003DFFFFF718FF05F10800C5B20834380057
:10077000A7F10101CFB2EFD1B8F1000F06D0424688
:1007800029462046FFF72AFFFFF705FFBDE8F0875F
:1007900070B504460D460121534800F0DEFE00BF4F
:1007A0005449514800F0B8FF0028F9D000224F48C2
:1007B0000088C1B24C4800F028FF00BF4E494A48AB
:1007C00000F0AAFF0028F9D02946474800F017FF9B
:1007D00000BF4949891C444800F09EFF0028F8D01A
:1007E0002178414800F00BFF00BF4349891C3E4877
:1007F00000F092FF0028F8D001213B4800F0B9FE3C
:1008000070BD70B504460D46164600BF4FF400316A
:10081000354800F0A3FF0028F8D10121324800F04C
:100820009CFE00BF3349304800F076FF0028F9D025
:1008300000222E480088C1B22B4800F0E6FE00BF1F
:100840002D49294800F068FF0028F9D001212648E9
:1008500000F05FFE2946244800F0D1FE00BF264983
:10086000891C214800F058FF0028F8D001211E48BB
:1008700000F073FE00BF1F491B4800F04DFF002829
:10088000F9D0012219480088C1B2174800F0BDFE16
:1008900000BF1849491C144800F03EFF0028F8D05A
:1008A00016E0012E07D100210F4800F06EFE012155
:1008B0000D4800F05EFE0F493F310B4800F02CFF61
:1008C00030B1094800F09DFE2070641C701E86B295
:1008D000002EE6D10121044800F057FE70BD000053
:1008E000000C0140801A0600005400400000002067
:1008F000000400100100030082000700DB480068CC
:1009000040F00100D949086008464068D8490840CD
:10091000D649486008460068D6490840D34908606F
:100920000846006820F4802008600846406820F4EB
:10093000FE0048604FF41F0088607047CB4909688B
:1009400021F48031C94A11601146096821F48021DF
:100950001160B0F5803F03D0B0F5802F0ED106E0D6
:10096000C249096841F48031C04A116007E0BF49BB
:10097000096841F4A021BD4A116000E000BF00BF3A
:10098000704710B501460022002300204A11012AB9
:1009900002D1B64C236806E0022A02D1B34C236A86
:1009A00001E0B24C636A01F01F02012494401C4232
:1009B00001D0012000E0002010BD70B5002400250A
:1009C000002600BF3120FFF7DCFF0646641CB4F5AB
:1009D000A06F01D0002EF5D03120FFF7D2FF08B173
:1009E000012500E00025284670BD00219F4A1168BE
:1009F00021F0F80141EAC001116070479E4908608A
:100A000070470022994B5A6822F47C1240EA010395
:100A10001A43964B5A607047974908667047002101
:100A2000924A516821F003010143516070478F4899
:100A3000406800F00C00704700218C4A516821F09A
:100A4000F0010143516070470021884A516821F448
:100A5000E0610143516070470021844A516821F4EC
:100A6000605141EAC0015160704729B17F4A527A12
:100A700002437E4B5A7206E07C4A527AC343DBB291
:100A80001A407A4B5A7270477B49D83108607047D8
:100A90000021764A516821F440410143516070477A
:100AA0000021724A20321170704A82F82010012809
:100AB00002D004280AD104E001216C4A20321170CE
:100AC00005E00521694A2032117000E000BF00BF37
:100AD00070476A49086070476449096A0143634A7C
:100AE00011627047654944390860704730B500218C
:100AF0000022002300245D4D6D6805F00C0121B13A
:100B0000042905D0082923D105E05D4D056022E0C8
:100B10005B4D05601FE0554D6D6805F47012534D37
:100B20006D6805F48033022505EB92421BB9554DE3
:100B3000554305600BE04D4D6D6815F4003F03D043
:100B4000504D5543056002E04D4D5543056002E0B0
:100B50004B4D056000BF00BF444D6D6805F0F001CE
:100B60000909494D6C5C0568E54045603F4D6D687D
:100B700005F4E061090A444D6C5C4568E540856018
:100B80003A4D6D6805F46051C90A3F4D6C5C45688B
:100B9000E540C560354D6D6805F44041890B3A4D1F
:100BA00010356C5CC568B5FBF4F5056130BD29B145
:100BB0002E4A526902432D4B5A6104E02B4A526976
:100BC00082432A4B5A61704729B1284A92690243ED
:100BD000264B9A6104E0254A92698243234B9A612D
:100BE000704729B1214AD2690243204BDA6104E0FF
:100BF0001E4AD26982431D4BDA61704729B11B4AF4
:100C0000D2680243194BDA6004E0184AD268824382
:100C1000164BDA60704729B1144A12690243134B2C
:100C20001A6104E0114A12698243104B1A6170473D
:100C300012494039086070470F49C86470470B4932
:100C4000C87170470948406A40F08070074948629F
:100C5000704701460020054A92680A4201D00120EF
:100C600000E0002070470149887270470010024080
:100C70000000FFF8FFFFF6FE0000424280044242FF
:100C800000127A0000093D000200002010B5044661
:100C9000C748844208D101210420FFF7AFFF00219B
:100CA0000420FFF7ABFF46E0C248844208D101218F
:100CB0000820FFF7A3FF00210820FFF79FFF3AE07D
:100CC000BD48844208D101211020FFF797FF002181
:100CD0001020FFF793FF2EE0B848844208D101218D
:100CE0002020FFF78BFF00212020FFF787FF22E065
:100CF000B348844208D101214020FFF77FFF002143
:100D00004020FFF77BFF16E0AE48844208D1012166
:100D10008020FFF773FF00218020FFF76FFF0AE0BC
:100D2000A948844207D101218015FFF767FF002100
:100D3000A015FFF763FF10BD10B501210846FFF7AE
:100D40005DFF00210120FFF759FF10BDF0B5002223
:100D50000023002400250026002791F803C00CF092
:100D60000F0291F803C01CF0100F03D091F802C0DD
:100D70004CEA0202B1F800C01CF0FF0F31D0066847
:100D800000242BE04FF0010C0CFA04F5B1F800C080
:100D90000CEA0503AB4220D1A5004FF00F0C0CFA72
:100DA00005F7BE4302FA05FC4CEA060691F803C0BB
:100DB000BCF1280F06D14FF0010C0CFA04FCC0F86E
:100DC00014C00AE091F803C0BCF1480F05D14FF000
:100DD000010C0CFA04FCC0F810C0641C082CD1D320
:100DE0000660B1F800C0BCF1FF0F34DD4668002496
:100DF0002EE004F1080C4FF0010E0EFA0CF5B1F8DC
:100E000000C00CEA0503AB4221D1A5004FF00F0C46
:100E10000CFA05F7BE4302FA05FC4CEA060691F807
:100E200003C0BCF1280F05D104F1080C0EFA0CFE2A
:100E3000C0F814E091F803C0BCF1480F07D104F1E9
:100E4000080C4FF0010E0EFA0CFEC0F810E0641C06
:100E5000082CCED34660F0BD4FF6FF710180022111
:100E600081700421C17070470246002093680B42D4
:100E700001D0012000E0002070470146886880B260
:100E8000704702460020D3680B4201D0012000E0E9
:100E9000002070470146C86880B270470161704702
:100EA000416170470AB1016100E041617047C16072
:100EB00070474FF480320A438261816182618269A6
:100EC000826970470022414B1A684FF680731A40BE
:100ED00042EA00120A433D4B1A6070473C49C86120
:100EE0007047F0B5002200230024002500F00046E2
:100EF000B6F1004F02D1354EF46901E0334E74680B
:100F0000C0F3034582B200F44016B6F5401F08D185
:100F100024F070642D4E766826F070662B4F7E604C
:100F200012E000F48016B6F5801F06D1032606FAFB
:100F300005F39C4344F0706406E0460D360102FA66
:100F400006F6B44344F0706421B1460D360102FA4E
:100F500006F6344300F00046B6F1004F02D11B4EB6
:100F6000F46101E0194E7460F0BD30B500228B07CA
:100F70001C0F0F2303FA04F2144B08338C1053F8A0
:100F8000244094438D1043F825408C1053F82430AE
:100F90008C07240F00FA04F423430C4C08348D1002
:100FA00044F8253030BD0A49DC3108607047000044
:100FB00000080140000C01400010014000140140F5
:100FC00000180140001C01400020014000000140C9
:100FD0000000204210B50446FB48844209D101219B
:100FE0008803FFF70BFE00214FF48040FFF706FE59
:100FF00032E0F648844209D101214804FFF70BFE94
:1010000000214FF40030FFF706FE25E0F04884424F
:1010100009D101218804FFF7FEFD00214FF4802053
:10102000FFF7F9FD18E0EB48844209D10121C8041B
:10103000FFF7F1FD00214FF40020FFF7ECFD0BE07E
:10104000E548844208D101210805FFF7E4FD0021AD
:101050004FF48010FFF7DFFD10BD2DE9F04786B09B
:1010600004460D460026002700BFB146B246A889B7
:1010700000B100BFA246268A4CF6FF700640E88801
:1010800006432682A6894EF6F3100640A8882989D1
:101090000843698908430643A681A68A4FF6FF40A4
:1010A0000640A8890643A68201A8FFF71FFD544603
:1010B000C548824501D1049F00E0039FA08910F438
:1010C000004F08D007EBC70000EB07102968490064
:1010D000B0FBF1F807E007EBC70000EB0710296849
:1010E0008900B0FBF1F86420B8FBF0F0060130098C
:1010F000642101FB1089A08910F4004F09D032212E
:1011000001EBC9006421B0FBF1F000F007000643D9
:1011100008E0322101EB09106421B0FBF1F000F08E
:101120000F000643268106B0BDE8F0874FF4165144
:10113000016000218180C18001810C214181002159
:101140008181704710B50022028A4FF2FF031A40D6
:101150000B884C8823438C882343CC8823431A4331
:10116000028210BD0021018041808180C1807047D2
:1011700021B1828942F40052828104E082894DF6D5
:10118000FF731A4082817047F0B5002400250026C5
:101190000023A1F510676A3F00D100BF0346C1F3E9
:1011A000421401F01F05012707FA05F6012C01D1B1
:1011B0000C3304E0022C01D1103300E014331AB1D7
:1011C0001F6837431F6002E01F68B7431F60F0BD10
:1011D00010B51AB1838A0B43838204E0838ACC431F
:1011E000A4B22340838210BD028A4FF6F0731A40E6
:1011F0000282028A0A430282704782894FF2FF7399
:101200001A40828182890A438281704721B1828992
:1012100042F00202828104E082894FF6FD731A4097
:1012200082817047028A4FF6DF731A400282028A77
:101230000A430282704721B1028A42F4804202824C
:1012400004E0028A4BF6FF731A4002827047C1F332
:1012500008028280704701468888C0F30800704702
:10126000818941F0010181817047028BD2B20283F2
:10127000028B42EA012202837047028B02F47F4212
:101280000283028B0A430283704721B1828A42F0B3
:101290002002828204E0828A4FF6DF731A40828243
:1012A000704721B1828A42F01002828204E0828A71
:1012B0004FF6EF731A408282704721B1828A42F062
:1012C0000802828204E0828A4FF6F7731A40828213
:1012D000704721B1828942F40042828103E0828911
:1012E000C2F30E028281704721B1828A42F4006209
:1012F000828204E0828A4FF2FF731A408282704732
:10130000828A4FF6FB731A408282828A0A43828263
:10131000704721B1828A42F00202828204E0828A0E
:101320004FF6FD731A408282704702460020B1F5E5
:10133000007F00D100BF13880B4201D0012000E0E4
:101340000020704701F40072B2F5007F00D100BFA9
:10135000CA430280704770B502460023002400256E
:101360000020A1F510666A3E00D100BFC1F342150E
:1013700001F01F04012606FA04F4012D02D196891A
:10138000344006E0022D02D1168A344001E0968AEC
:1013900034400B12012606FA03F31688334014B1C9
:1013A0000BB1012000E0002070BD10B50022002329
:1013B000A1F510646A3C00D100BF0A1201249440D8
:1013C000A3B2DC43048010BD00380140004400405B
:1013D00000480040004C00400050004010B504465A
:1013E000F848844209D101214805FFF714FC002187
:1013F0004FF40010FFF70FFC08E001218805FFF70C
:101400000AFC00214FF48000FFF705FC10BD2DE918
:10141000F04385B004460D46002600274FF004082F
:10142000DFF8A493A6884FF6C0710E406846FFF718
:101430005DFBDDF80890E548B9FBF0F087B23E436C
:10144000A68020884FF6FE71084020800026E049E3
:10145000286888420FD828684000B9FBF0F01FFACE
:1014600080F8B8F1040F01DA4FF0040846EA0806E4
:10147000781C208429E0E888A0F53F41FF3907D196
:10148000286800EB4000B9FBF0F01FFA80F80AE092
:10149000286800EBC00101EB0010B9FBF0F01FFA67
:1014A00080F848F48048C8F30B00002801D148F0C8
:1014B000010848F4004006434FF4967078434FF417
:1014C0007A7190FBF1F0401C2084A683208840F0C4
:1014D0000100208026884FF6F5300640A8886989EB
:1014E000084306432680A88929890843208105B03E
:1014F000BDE8F08341F288310160002181804BF624
:10150000FF71C1800021018141814FF480418181BF
:10151000704721B1028842F00102028004E0028893
:101520004FF6FE731A400280704721B1828842F460
:101530000062828004E082884FF2FF731A4082804A
:10154000704721B1828842F48052828004E0828810
:101550004EF6FF731A408280704721B1028842F430
:101560008072028004E002884FF6FF631A40028016
:10157000704721B1028842F40072028004E00288C0
:101580004FF6FF531A400280704721B1028842F49F
:101590008062028004E002884FF6FF331A40028026
:1015A0007047002282894FF601731A4001F0FE0352
:1015B0001A438281704721B1828942F001028281FF
:1015C00004E082894FF6FE731A408281704721B190
:1015D000028842F04002028004E002884FF6BF73A6
:1015E0001A400280704710B51AB183880B4383807C
:1015F00004E08388CC43A4B22340838010BD0182E1
:1016000070470146088AC0B2704712B141F001012B
:1016100002E04FF6FE731940018270470246002334
:1016200013461A460B441888704721B1028842F4C9
:101630000042028003E00288C2F30E02028070477B
:10164000B1F5006F04D1028842F40062028004E028
:1016500002884FF2FF731A4002807047B1F5005FB5
:1016600004D1028842F40052028004E002884DF660
:10167000FF731A400280704721B1028842F4805201
:10168000028004E002884EF6FF731A400280704721
:10169000B1F5006F04D1028842F40062028004E0D8
:1016A00002884FF2FF731A400280704721B102880E
:1016B00042F02002028004E002884FF6DF731A40F5
:1016C000028070470146088B0012704721B10288E2
:1016D00042F01002028004E002884FF6EF731A40D5
:1016E0000280704721B9028842F08002028004E043
:1016F00002884FF67F731A4002807047B1F5804F21
:1017000005D0828B4BF6FF731A40828303E0828BF5
:1017100042F480428283704770B50546002400225F
:1017200000230020AA8A2B8B1B0442EA030626F022
:101730007F4404EA01068E4201D1012000E000202E
:1017400070BD10B50346002000210022998A1A8B33
:10175000120441EA020424F07F4010BD30B5024675
:1017600000200024002313460C0F21F07F410CB110
:10177000143301E0090C18331D680D4201D001201B
:1017800000E0002030BD002221F07F42D34383825D
:10179000704730B5024600200023948801F0E065D0
:1017A00004EA154321F07F41948A0C4202D00BB128
:1017B000012000E0002030BD002221F07F42D34311
:1017C000838270470054004000127A0040420F00AC
:1017D000A086010000200021674A126842F480328E
:1017E000654B1A6000BF644A126802F40031401C65
:1017F00011B9B0F5A06FF6D15F4A126812F4003F3C
:1018000001D0012100E00021012942D15B4A126888
:1018100042F01002594B1A601A46126822F0030275
:101820001A601A46126842F002021A60524A52685E
:10183000514B5A601A4652685A601A46526842F42E
:1018400080625A601A46526822F47C125A601A4624
:10185000526842F4E8125A601A46126842F08072E6
:101860001A6000BF444A126812F0007FFAD0424A60
:10187000526822F00302404B5A601A46526842F006
:1018800002025A6000BF3C4A526802F00C02082A69
:10189000F9D1704710B5FFF79DFF10BD10B5364860
:1018A000006840F001003449086008464068344947
:1018B00008403149486008460068324908402E49CE
:1018C00008600846006820F48020086008464068E8
:1018D00020F4FE0048604FF41F008860FFF7DAFF35
:1018E0004FF000602849086010BD10B500200021AD
:1018F0000022214B5B6803F00C0020B1042806D0C5
:10190000082828D107E0214B214C236027E01F4BFA
:101910001F4C236023E0184B5B6803F47011164BD7
:101920005B6803F48032022303EB914122B9194B27
:101930004B43174C23600DE00F4B5B6813F4003FE3
:1019400004D0144B4B43124C236003E00F4B4B432A
:101950000F4C236003E00D4B0D4C236000BF00BF14
:10196000054B5B68C3F303130B4CE05C084B1B682F
:10197000C340074C236010BD00100240002002400D
:101980000000FFF8FFFFF6FE08ED00E000127A000D
:101990001800002000093D001C0000202DE9F04740
:1019A000002591469A46074688462E46402418E070
:1019B00022464146384600F041F8B0EB090071EB91
:1019C0000A010ED322465146484600F027F83F1A36
:1019D00068EB010822460021012000F01FF845199C
:1019E0004E41201EA4F10104E2DC284631463A466D
:1019F0004346BDE8F0870000064C074D06E0E0686E
:101A000040F0010394E8070098471034AC42F6D345
:101A1000FEF792FB3C1F00085C1F0008202A04DB35
:101A20000023203A00FA02F106E000FA02F39140A6
:101A3000C2F12002D040014318467047202A04DB3F
:101A4000203A21FA02F000217047D040C2F1200371
:101A500001FA03F31843D140704700000FB410B5EA
:101A600003A9044B044A029800F018F810BC5DF872
:101A700014FB00008B0300082C00002002E008C8C3
:101A8000121F08C1002AFAD170477047002001E0F8
:101A900001C1121F002AFBD1704700002DE9FF4F42
:101AA00093B005460F460026FBE1252875D100249A
:101AB0006D1CA346A1460121FE4A2B78203B01FA6A
:101AC00003F0104202D004436D1CF6E728782A2860
:101AD00016D157F804BBBBF1000F03DA44F40054ED
:101AE000CBF1000B44F002046D1C10E00BEB8B00FB
:101AF00002EB400044F0020401EB000B6D1C01E01E
:101B00006FF02F022978A1F130000928EED928784A
:101B10002E2818D115F8010F44F004042A280BD1FF
:101B200057F8049B6D1C0EE009EB890002EB4000A6
:101B300001EB00096D1C01E06FF02F022978A1F183
:101B400030000928F0D928786C280ED008DC4C2801
:101B500016D068280CD06A2813D144F400140FE082
:101B600074280DD07A280CD10AE044F4801401E0E6
:101B700044F440146978814202D16D1C04F580144C
:101B80006D1C28786E2833D01CDC632846D005DC19
:101B9000002878D0582889D128E0A1E1642801D014
:101BA0006928F8D10A200021CDE90C01C4F30250C4
:101BB000022878D1FF1D27F00707D7E900810837F1
:101BC0000F9182E0732833D00CDC6F287ED0702810
:101BD000E1D110210022CDE90C1244F004044FF0B1
:101BE000080997E0752872D07828D4D110218EE0AA
:101BF000C4F30250022804D13868F117C0E900612B
:101C00000AE0032802D13868068005E00428386815
:101C100001D1067000E006603F1D41E101CF8DF863
:101C20003C0000208DF83D000DF13C0A012003E04E
:101C300057F804AB4FF0FF3061074FF000010CD5AF
:101C400001E008F101018846494510DA8045F8DBDA
:101C50001AF808100029F4D109E001E008F10101A7
:101C600088468142FADB1AF808100029F6D1DDE92E
:101C70001523ABEB08092146484600F048F93044EB
:101C800000EB080606E010E10DE0DDE915121AF898
:101C9000010B9047B8F101008046F6D2DDE915232B
:101CA00021464846F9E002CFCA1788460F9203281A
:101CB00004D10FFA88F1CA1788460F92042804D17C
:101CC0004FFA88F0C11780460F9101E01EE01BE03B
:101CD00000230F99B8EB0300994108DA0F99D8F166
:101CE000000861EB41014FF02D000F9102E020054B
:101CF00004D52B208DF80800012003E0E00701D077
:101D00002020F7E7824653E00A2100E00821002264
:101D1000CDE90C12C4F30251022907D1FF1D27F0AF
:101D20000707D7E9008208370F920BE0002357F826
:101D3000048B0F93032901D11FFA88F8042901D1DC
:101D400008F0FF084FF0000A210731D5702804D1B0
:101D500040208DF80800012013E0DDE90C0110227D
:101D6000504008430ED100230F9988EA03005940E0
:101D7000084307D030208DF8080028788DF8090036
:101D800002208246DDE90C010822504008430FD1B1
:101D900000230F9988EA03005940084301D16007E6
:101DA00006D530208DF808004FF0010AA9F101098D
:101DB000297841A0582900D044A001900CA8039094
:101DC0000DE0DDE90C2340460F99FFF7E7FD019B8D
:101DD00080469B5C039A521E039213700F9100235E
:101DE0000F9988EA030059400843EAD1039904A8EF
:101DF000401A00F12008600702D524F4803401E085
:101E00004FF001090020C14501DDA9EB080000EBFE
:101E1000080151441090ABEB01001190E00306D48F
:101E2000DDE915232146119800F071F806444FF0C2
:101E300000090DF1080B07E0DDE915121BF8090098
:101E40009047761C09F10109D145F5DBE0030CD57B
:101E5000DDE915232146119800F059F8064404E005
:101E6000DDE9151230209047761C1098411E109124
:101E70000028F5DC08E0039803990078491C0391D9
:101E8000DDE915129047761CB8F10000A8F10108B1
:101E9000F1DCDDE915232146119800F026F806440F
:101EA0006D1C287800287FF400AE304617B0BDE8DE
:101EB000F08F0000092801003031323334353637D5
:101EC0003839414243444546000000003031323346
:101ED0003435363738396162636465660000000066
:101EE000DDE915129047761CDAE72DE9F04104464A
:101EF000002517461E46880406D503E039462020F3
:101F0000B0476D1C641EF9D52846BDE8F0812DE967
:101F1000F04104460025302790461E46C80300D4F1
:101F20002027880406D403E041463846B0476D1C9C
:101F3000641EF9D52846BDE8F08100005C1F00084A
:101F400000000020300000007C1A00088C1F0008F0
:101F500030000020000600008C1A0008000000007D
:101F60000000010203040102030406070809020439
:101F70000608000000A24A04000000000000000063
:0C1F80000102030406070809000000002D
:0400000508000131BD
:00000001FF
