:020000040800F2
:1000000048040020C1080008150300081703000871
:100010001B0300081F030008230300080000000062
:10002000000000000000000000000000270300089E
:1000300029030008000000002B0300082D0300081E
:10004000DB080008DB080008DB080008DB08000804
:10005000DB080008DB080008DB080008DB080008F4
:10006000DB080008DB080008DB080008DB080008E4
:10007000DB080008DB080008DB080008DB080008D4
:10008000DB080008DB080008DB080008DB080008C4
:10009000DB080008DB080008DB080008DB080008B4
:1000A000DB080008DB080008DB080008DB080008A4
:1000B000DB080008DB080008DB080008DB08000894
:1000C000DB080008DB080008DB080008DB08000884
:1000D000DB080008DB080008DB080008DB08000874
:1000E000DB080008DB080008DB080008DB08000864
:1000F000DB080008DB080008DB080008DB08000854
:10010000DB080008DB080008DB080008DB08000843
:10011000DB080008DB080008DB080008DB08000833
:10012000DB080008DB080008DB080008DB08000823
:10013000DFF80CD001F0C6FB00480047450100087D
:100140004804002010B500F0BDFA00F0F6F82EA02B
:1001500001F0CAFB36A001F0C7FB3EA001F0C4FBD2
:1001600000F02BFA4649087008460078012803D1B0
:1001700044A001F0B9FB02E036A001F0B5FB41E07C
:1001800047A001F0B1FB00F0C1F94C4800F065FA5E
:100190003B49087008460078402824D1002048498F
:1001A00008701CE04548464A1278815C45A001F081
:1001B0009BFB424842490978405C401CC1B23F4821
:1001C0003F4A127881543E490978415C48483C4A8C
:1001D000127881543A480078401C394908703848F0
:1001E00000780428DEDB43A001F07EFB00F0B5F9C7
:1001F00000BF3F4800F003FA214908700846007824
:100200001028F6D0BCE700000D0A20D5E2CAC7D2FC
:10021000BBB8F6204E524632344C303120CEDECFC1
:10022000DFB4ABCAE4CAB5D1E9200D0A0000000072
:100230000D0A20D5E2CAC7CEDECFDFB4ABCAE420B8
:10024000B4D3BBFAB6CB20B5C4B7B4C0A1D0C5CF28
:10025000A20D0A000D0A202020D5FDD4DABCECB294
:10026000E24E5246D3EB4D4355CAC7B7F1D5FDB365
:10027000A3C1ACBDD3A1A3A1A3A1A30D0A000000FB
:10028000000000200D0A2020202020204E5246D3BE
:10029000EB4D4355C1ACBDD3B3C9B9A60D0A00009F
:1002A0000D0A20B4D3BBFAB6CB20BDF8C8EBBDD342
:1002B000CAD5C4A3CABD0D0A000000000500002075
:1002C000090000200D0A20B4D3BBFAB6CB20BDD361
:1002D000CAD5B5BD20D6F7BBFAB6CB20B7A2CBCDD9
:1002E000B5C4CAFDBEDDCEAAA3BA2564200D0A009E
:1002F000010000200D0A20B4D3BBFAB6CB20BDF814
:10030000C8EBD7D4D3A6B4F0B7A2CBCDC4A3CABD93
:100310000D0A0000704700BFFEE700BFFEE700BF08
:10032000FEE700BFFEE77047704770477047000068
:1003300000E0401E0028FCD1704700B587B00121C5
:10034000452000F05FFF0121080300F05BFFE02083
:10035000ADF8040001208DF8060018208DF8070084
:1003600001A9D24800F01EFB0620ADF804000120D0
:100370008DF8060010208DF8070001A9CB4800F089
:1003800011FB0820ADF8040001208DF8060048207C
:100390008DF8070001A9C54800F004FB0221C348FD
:1003A00000F0A8FB0020ADF808004FF48270ADF813
:1003B0000A000020ADF80C00ADF80E00ADF81000FA
:1003C0004FF40070ADF812001020ADF814000020BA
:1003D000ADF816000720ADF8180002A9B44800F0E7
:1003E0004BFC0121B24800F0E7FC07B000BD10B59E
:1003F000044600BF0221AE4800F067FD0028F9D096
:100400002146AB4800F00EFD00BF0121A84800F0D6
:100410005CFD0028F9D0A64800F006FDC0B210BD72
:1004200070B504460D460421A04800F065FB02218A
:100430009E4800F061FB2046FFF7D9FF064628469C
:10044000FFF7D5FF0221994800F054FB304670BDFC
:1004500070B504460421954800F04EFB02219348F4
:1004600000F04AFB2046FFF7C2FFFF20FFF7BFFF67
:10047000054602218D4800F03DFB284670BD2DE960
:10048000F04104460D4616460421884800F034FB2E
:100490000221864800F030FB2046FFF7A8FF804687
:1004A000002705E0FF20FFF7A2FFE855781CC7B240
:1004B000B742F7DB02217D4800F01CFB4046BDE857
:1004C000F0812DE9F04104460D4616460421774897
:1004D00000F012FB0221754800F00EFB2046FFF7EA
:1004E00086FF07464FF0000807E015F8010BFFF7FD
:1004F0007EFF08F1010000F0FF08B045F5DB0221A6
:100500006A4800F0F7FA3846BDE8F08110B50421DA
:10051000664800F0F1FA052266492A20FFF7D1FF6C
:1005200001212120FFF77CFF01212220FFF778FF26
:1005300028212520FFF774FF04213120FFF770FFE9
:100540000F212620FFF76CFF0F212020FFF768FF07
:100550000421564800F0CEFA10BD10B504215348CE
:1005600000F0CAFA052254493020FFF7AAFF0522FD
:1005700050492A20FFF7A5FF01212120FFF750FF56
:1005800001212220FFF74CFF1A212420FFF748FF0A
:1005900028212520FFF744FF0F212620FFF740FFE9
:1005A0000E212020FFF73CFF0421404800F0A2FA72
:1005B0004FF6FF70FFF7BCFE10BD1FB53FA103C98A
:1005C000CDE90201052202A93020FFF77AFF0522BA
:1005D00069461020FFF753FF002406E01DF80400D1
:1005E000C22800D003E0601CC4B2052CF6DB00BFBB
:1005F000052C02D1012004B010BD0020FBE770B52E
:1006000005460421294800F077FA04222946A02053
:10061000FFF757FF0421254800F06CFA00BF0821BE
:10062000224800F04DFA0028F9D10720FFF710FF0B
:10063000044621462720FFF7F3FEFF21E120FFF7C4
:10064000EFFE14F0100F01D0102070BD14F0200F39
:1006500001D02020F9E70020F7E770B50546042116
:10066000124800F047FA00BF0821104800F028FAAD
:100670000028F9D104210D4800F03EFA0720FFF7C9
:10068000E7FE044621462720FFF7CAFE14F0400F7C
:100690000AD0042229466120FFF7F1FEFF21E22063
:1006A000FFF7BEFE402070BD0020FCE700080140BF
:1006B000003001400F0000200A000020C2C2C2C268
:1006C000C200000000B585B0012144F2040000F032
:1006D00099FD4FF40070ADF8100018208DF813004C
:1006E00003208DF8120004A9734800F05BF94FF461
:1006F0008060ADF8100004208DF8130004A96E4846
:1007000000F050F94FF4E13000900020ADF8040003
:10071000ADF80600ADF80800ADF80C000C20ADF8FF
:100720000A006946654800F012FE0121634800F0A6
:1007300099FE05B000BD70B504460D46E1B25F48B4
:1007400000F0FFFE00BF5D48008810F0800FFAD077
:10075000204670BDF0B5034600270E460A2A03D096
:10076000002030700846F0BD33B9302006F8010B88
:10077000002030700846F6E7002B03DA2D2006F83B
:10078000010B5B4242F210740DE093FBF4F505B9E6
:1007900037B105F1300006F8010B05FB14330127D2
:1007A0000A2094FBF0F4002CEFDC002030700846A7
:1007B000D9E70FB470B586B004460CA8019073E079
:1007C0000B9800785C281CD10B98401C0B9000788B
:1007D0006E2809D072280FD10D21204600F0B1FEFD
:1007E0000B98401C0B900BE00A21204600F0A9FE5C
:1007F0000B98401C0B9003E00B98401C0B9000BF23
:100800004BE00B980078252840D10B98401C0B90AA
:100810000078642818D0732833D1019820C801903B
:100820000BE02978204600F08CFE00BF40212046D6
:1008300000F0F5FE0028F9D06D1C28780028F0D1D2
:100840000B98401C0B9020E0019840C801900A22B0
:1008500002A93046FFF77EFF02AD0BE02978204663
:1008600000F06FFE00BF4021204600F0D8FE0028B7
:10087000F9D06D1C28780028F0D10B98401C0B9003
:1008800003E00B98401C0B9000BF06E00B9810F89B
:10089000011B0B90204600F054FE00BF4021204673
:1008A00000F0BDFE0028F9D00B980078002887D111
:1008B00006B070BC5DF814FB000801400038014030
:1008C0000648804706480047FEE7FEE7FEE7FEE7EA
:1008D000FEE7FEE7FEE7FEE7FEE7FEE79917000802
:1008E0003101000810B50446C748844208D10121EF
:1008F000042000F0A1FC0021042000F09DFC46E053
:10090000C248844208D10121082000F095FC002152
:10091000082000F091FC3AE0BD48844208D1012152
:10092000102000F089FC0021102000F085FC2EE052
:10093000B848844208D10121202000F07DFC00212C
:10094000202000F079FC22E0B348844208D1012144
:10095000402000F071FC0021402000F06DFC16E00A
:10096000AE48844208D10121802000F065FC0021BE
:10097000802000F061FC0AE0A948844207D10121EF
:10098000801500F059FC0021A01500F055FC10BDA9
:1009900010B50121084600F04FFC0021012000F0B5
:1009A0004BFC10BDF0B500220023002400250026DA
:1009B000002791F803C00CF00F0291F803C01CF05F
:1009C000100F03D091F802C04CEA0202B1F800C047
:1009D0001CF0FF0F31D0066800242BE04FF0010C13
:1009E0000CFA04F5B1F800C00CEA0503AB4220D1C3
:1009F000A5004FF00F0C0CFA05F7BE4302FA05FCF8
:100A00004CEA060691F803C0BCF1280F06D14FF05E
:100A1000010C0CFA04FCC0F814C00AE091F803C001
:100A2000BCF1480F05D14FF0010C0CFA04FCC0F8E2
:100A300010C0641C082CD1D30660B1F800C0BCF112
:100A4000FF0F34DD466800242EE004F1080C4FF05F
:100A5000010E0EFA0CF5B1F800C00CEA0503AB422A
:100A600021D1A5004FF00F0C0CFA05F7BE4302FA96
:100A700005FC4CEA060691F803C0BCF1280F05D12D
:100A800004F1080C0EFA0CFEC0F814E091F803C053
:100A9000BCF1480F07D104F1080C4FF0010E0EFA1B
:100AA0000CFEC0F810E0641C082CCED34660F0BDEC
:100AB0004FF6FF710180022181700421C1707047DF
:100AC0000246002093680B4201D0012000E0002084
:100AD00070470146886880B2704702460020D3689C
:100AE0000B4201D0012000E0002070470146C86899
:100AF00080B2704701617047416170470AB101617E
:100B000000E041617047C16070474FF480320A4392
:100B10008261816182618269826970470022414BF2
:100B20001A684FF680731A4042EA00120A433D4B9E
:100B30001A6070473C49C8617047F0B50022002335
:100B40000024002500F00046B6F1004F02D1354EDA
:100B5000F46901E0334E7468C0F3034582B200F4D7
:100B60004016B6F5401F08D124F070642D4E76680B
:100B700026F070662B4F7E6012E000F48016B6F50A
:100B8000801F06D1032606FA05F39C4344F07064E7
:100B900006E0460D360102FA06F6B44344F07064EE
:100BA00021B1460D360102FA06F6344300F0004644
:100BB000B6F1004F02D11B4EF46101E0194E746092
:100BC000F0BD30B500228B071C0F0F2303FA04F28F
:100BD000144B08338C1053F8244094438D1043F881
:100BE00025408C1053F824308C07240F00FA04F4AD
:100BF00023430C4C08348D1044F8253030BD0A498D
:100C0000DC3108607047000000080140000C014022
:100C1000001001400014014000180140001C014078
:100C200000200140000001400000204210B50446B1
:100C3000BE48844208D10121801400F0FDFA002151
:100C4000A01400F0F9FA16E0B948844208D1012155
:100C5000001400F0FEFA0021201400F0FAFA0AE075
:100C6000B448844207D10121C01300F0F2FA0021F8
:100C7000E01300F0EEFA10BD10B50022028802F475
:100C800041520B884C8823438C882343CC882343D0
:100C90000C8923434C8923438C892343CC892343E8
:100CA0001A430280838B4FF2FF74234083830B8AA5
:100CB000038210BD2DE9F04F85B004460D46002695
:100CC0000227B0464FF00109B246B346A08B4FF25F
:100CD00040010840A08302202084A68BA868022837
:100CE00001D100BF38E0A88810B94FF0010901E038
:100CF0004FF002098E48844200D100E000BF6846F0
:100D000000F012FADDF800B0E888B0F5007F0BD1F2
:100D10004FEA1B2000EB80004000A968B0FBF1F017
:100D2000401D1FFA80FA0CE04FEA4910BBFBF0F0BF
:100D300000EB80004000A968B0FBF1F0401D1FFAF5
:100D400080FA0A20BAFBF0FA0AF00108AAEB0800C0
:100D5000C0F34F074FEA0828022F01DBFF2F02DD07
:100D600002274FF00008E88840EA08003843208452
:100D7000A888A9890843698808432988084340F45A
:100D800000600643A68305B0BDE8F08F0021018016
:100D900041808180C180018141818181C1810721A0
:100DA000018270470021018041808180C180022141
:100DB000816000218181704721B1028842F04002A8
:100DC000028004E002884FF6BF731A400280704729
:100DD00021B1828B42F48062828304E0828B4FF6E1
:100DE000FF331A408283704770B5002300240B1133
:100DF00001259D40ACB21AB185882543858004E069
:100E00008588E643B6B23540858070BD10B51AB10D
:100E100083880B43838004E08388CC43A4B22340BF
:100E2000838010BD81817047014688897047A1F594
:100E30007E42FF3A04D0028842F48072028004E0CD
:100E400002884FF6FF631A400280704721B1828802
:100E500042F00402828004E082884FF6FB731A405D
:100E60008280704702884FF2FF731A400280028826
:100E70000A4302807047018841F480510180704725
:100E800021B1028842F40052028004E002884DF64B
:100E9000FF731A400280704702460020012901D0EA
:100EA000108B00E0908A70470146088A7047B1F5C0
:100EB000804F04D1028842F48042028004E002881C
:100EC0004BF6FF731A4002807047024600201389D8
:100ED0000B4201D0012000E000207047CA4302818C
:100EE0007047F0B50246002000230024002501F0E1
:100EF0000F070126BE40B3B20C110126A640B4B2C2
:100F0000968806EA040516891E4202D00DB101201A
:100F100000E00020F0BD10B5002201F00F04012315
:100F2000A3409AB2D343038110BD000000300140BA
:100F300000380040003C0040DB48006840F0010001
:100F4000D949086008464068D8490840D6494860F1
:100F500008460068D6490840D3490860084600683A
:100F600020F4802008600846406820F4FE004860B5
:100F70004FF41F0088607047CB49096821F4803125
:100F8000C94A11601146096821F480211160B0F549
:100F9000803F03D0B0F5802F0ED106E0C24909682A
:100FA00041F48031C04A116007E0BF49096841F44B
:100FB000A021BD4A116000E000BF00BF704710B51E
:100FC00001460022002300204A11012A02D1B64C1A
:100FD000236806E0022A02D1B34C236A01E0B24C36
:100FE000636A01F01F02012494401C4201D00120D9
:100FF00000E0002010BD70B500240025002600BFD1
:101000003120FFF7DCFF0646641CB4F5A06F01D069
:10101000002EF5D03120FFF7D2FF08B1012500E006
:101020000025284670BD00219F4A116821F0F80173
:1010300041EAC001116070479E4908607047002274
:10104000994B5A6822F47C1240EA01031A43964BEA
:101050005A6070479749086670470021924A516864
:1010600021F003010143516070478F48406800F050
:101070000C00704700218C4A516821F0F0010143B7
:10108000516070470021884A516821F4E0610143B2
:10109000516070470021844A516821F4605141EA4F
:1010A000C0015160704729B17F4A527A02437E4B9A
:1010B0005A7206E07C4A527AC343DBB21A407A4B3A
:1010C0005A7270477B49D831086070470021764AD0
:1010D000516821F440410143516070470021724A38
:1010E00020321170704A82F82010012802D00428A2
:1010F0000AD104E001216C4A2032117005E005217B
:10110000694A2032117000E000BF00BF70476A4991
:10111000086070476449096A0143634A1162704775
:10112000654944390860704730B50021002200232A
:1011300000245D4D6D6805F00C0121B1042905D036
:10114000082923D105E05D4D056022E05B4D056077
:101150001FE0554D6D6805F47012534D6D6805F430
:101160008033022505EB92421BB9554D554305606E
:101170000BE04D4D6D6815F4003F03D0504D5543C5
:10118000056002E04D4D5543056002E04B4D0560A2
:1011900000BF00BF444D6D6805F0F0010909494DDD
:1011A0006C5C0568E54045603F4D6D6805F4E061A5
:1011B000090A444D6C5C4568E54085603A4D6D68B0
:1011C00005F46051C90A3F4D6C5C4568E540C56057
:1011D000354D6D6805F44041890B3A4D10356C5C16
:1011E000C568B5FBF4F5056130BD29B12E4A5269D9
:1011F00002432D4B5A6104E02B4A526982432A4B29
:101200005A61704729B1284A92690243264B9A6174
:1012100004E0254A92698243234B9A61704729B1C1
:10122000214AD2690243204BDA6104E01E4AD269A6
:1012300082431D4BDA61704729B11B4AD2680243D1
:10124000194BDA6004E0184AD2688243164BDA6020
:10125000704729B1144A12690243134B1A6104E022
:10126000114A12698243104B1A6170471249403982
:10127000086070470F49C86470470B49C8717047D0
:101280000948406A40F0807007494862704701464B
:101290000020054A92680A4201D0012000E00020A7
:1012A0007047014988727047001002400000FFF843
:1012B000FFFFF6FE000042428004424200127A0024
:1012C00000093D001C00002010B50446FB48844284
:1012D00009D101218803FFF7AFFF00214FF48040BF
:1012E000FFF7AAFF32E0F648844209D10121480401
:1012F000FFF7AFFF00214FF40030FFF7AAFF25E012
:10130000F048844209D101218804FFF7A2FF00219F
:101310004FF48020FFF79DFF18E0EB48844209D18D
:101320000121C804FFF795FF00214FF40020FFF7CB
:1013300090FF0BE0E548844208D101210805FFF742
:1013400088FF00214FF48010FFF783FF10BD2DE9C7
:10135000F04786B004460D460026002700BFB14680
:10136000B246A88900B100BFA246268A4CF6FF709B
:101370000640E88806432682A6894EF6F31006400A
:10138000A88829890843698908430643A681A68A53
:101390004FF6FF400640A8890643A68201A8FFF742
:1013A000C3FE5446C548824501D1049F00E0039F17
:1013B000A08910F4004F08D007EBC70000EB07101E
:1013C00029684900B0FBF1F807E007EBC70000EB24
:1013D000071029688900B0FBF1F86420B8FBF0F031
:1013E00006013009642101FB1089A08910F4004F27
:1013F00009D0322101EBC9006421B0FBF1F000F00B
:101400000700064308E0322101EB09106421B0FB1C
:10141000F1F000F00F000643268106B0BDE8F0872A
:101420004FF41651016000218180C18001810C219F
:10143000418100218181704710B50022028A4FF25C
:10144000FF031A400B884C8823438C882343CC88A5
:1014500023431A43028210BD002101804180818014
:10146000C180704721B1828942F40052828104E038
:1014700082894DF6FF731A4082817047F0B50024CF
:10148000002500260023A1F510676A3F00D100BFA8
:101490000346C1F3421401F01F05012707FA05F6C0
:1014A000012C01D10C3304E0022C01D1103300E0F7
:1014B00014331AB11F6837431F6002E01F68B74337
:1014C0001F60F0BD10B51AB1838A0B43838204E01C
:1014D000838ACC43A4B22340838210BD028A4FF694
:1014E000F0731A400282028A0A430282704782899C
:1014F0004FF2FF731A40828182890A4382817047CA
:1015000021B1828942F00202828104E082894FF691
:10151000FD731A4082817047028A4FF6DF731A40CA
:101520000282028A0A430282704721B1028A42F48F
:101530008042028204E0028A4BF6FF731A40028264
:101540007047C1F308028280704701468888C0F363
:1015500008007047818941F0010181817047028B49
:10156000D2B20283028B42EA012202837047028BCD
:1015700002F47F420283028B0A430283704721B147
:10158000828A42F02002828204E0828A4FF6DF7370
:101590001A408282704721B1828A42F01002828210
:1015A00004E0828A4FF6EF731A408282704721B1BD
:1015B000828A42F00802828204E0828A4FF6F77340
:1015C0001A408282704721B1828942F400428281AE
:1015D00003E08289C2F30E028281704721B1828AC0
:1015E00042F40062828204E0828A4FF2FF731A4062
:1015F00082827047828A4FF6FB731A408282828A07
:101600000A438282704721B1828A42F002028282BA
:1016100004E0828A4FF6FD731A40828270470246C8
:101620000020B1F5007F00D100BF13880B4201D02C
:10163000012000E00020704701F40072B2F5007F45
:1016400000D100BFCA430280704770B50246002334
:10165000002400250020A1F510666A3E00D100BFDD
:10166000C1F3421501F01F04012606FA04F4012D0E
:1016700002D19689344006E0022D02D1168A344008
:1016800001E0968A34400B12012606FA03F316880D
:10169000334014B10BB1012000E0002070BD10B543
:1016A00000220023A1F510646A3C00D100BF0A1299
:1016B00001249440A3B2DC43048010BD00380140F3
:1016C0000044004000480040004C004000500040F2
:1016D00000200021674A126842F48032654B1A608C
:1016E00000BF644A126802F40031401C11B9B0F521
:1016F000A06FF6D15F4A126812F4003F01D00121B9
:1017000000E00021012942D15B4A126842F0100238
:10171000594B1A601A46126822F003021A601A46E0
:10172000126842F002021A60524A5268514B5A60E3
:101730001A4652685A601A46526842F480625A60E9
:101740001A46526822F47C125A601A46526842F4D1
:10175000E8125A601A46126842F080721A6000BF9E
:10176000444A126812F0007FFAD0424A526822F0CE
:101770000302404B5A601A46526842F002025A6015
:1017800000BF3C4A526802F00C02082AF9D17047A7
:1017900010B5FFF79DFF10BD10B53648006840F04A
:1017A000010034490860084640683449084031491E
:1017B000486008460068324908402E4908600846DB
:1017C000006820F4802008600846406820F4FE008D
:1017D00048604FF41F008860FFF7DAFF4FF00060A9
:1017E0002849086010BD10B5002000210022214BBF
:1017F0005B6803F00C0020B1042806D0082828D12B
:1018000007E0214B214C236027E01F4B1F4C236036
:1018100023E0184B5B6803F47011164B5B6803F40C
:101820008032022303EB914122B9194B4B43174CF1
:1018300023600DE00F4B5B6813F4003F04D0144BA2
:101840004B43124C236003E00F4B4B430F4C236080
:1018500003E00D4B0D4C236000BF00BF054B5B68E0
:10186000C3F303130B4CE05C084B1B68C340074CED
:10187000236010BD00100240002002400000FFF86D
:10188000FFFFF6FE08ED00E000127A0030000020B5
:1018900000093D003400002030B50B460146002011
:1018A0002022012409E021FA02F59D4205D303FA22
:1018B00002F5491B04FA02F52844151EA2F10102A3
:1018C000F1DC30BD064C074D06E0E06840F0010356
:1018D00094E8070098471034AC42F6D3FEF72CFC8E
:1018E000741A0008941A00080FB410B503A9044B29
:1018F000044A029800F018F810BC5DF814FB0000D0
:10190000370700084400002002E008C8121F08C181
:10191000002AFAD170477047002001E001C1121F70
:10192000002AFBD1704700002DE9FF4F89B0044623
:101930009A4600258FE0252875D10027641C4C4A63
:10194000B84601212378203B01FA03F0104202D06F
:101950000743641CF6E720782E281AD114F8010FEB
:1019600047F004072A280DD10A98641C50F8048B0C
:101970000A900EE008EB880002EB400001EB000843
:10198000641C01E06FF02F022178A1F130000928DA
:10199000F0D92078002862D0642809D0692807D0BF
:1019A000752860D10A994FF00A0901C90A9114E01B
:1019B0000A994FF00A0901C90A91002802DA404247
:1019C0002D2102E0390504D52B218DF800100121CD
:1019D00004E0F90701D02021F7E700218B4609AE8A
:1019E00005E04946FFF758FF303106F8011D002891
:1019F000F7D101A8801B00F12009780701D44FF02E
:101A000001080020C84501DDA8EB09008046002739
:101A100006E01DF8070052460B9990476D1C7F1C8D
:101A20005F45F6DB05E01EE0302052460B999047FB
:101A30006D1CB8F10000A8F10108F5DC05E016F80E
:101A4000010B52460B9990476D1CB9F10000A9F1AA
:101A50000109F4DC641C207800287FF46CAF284670
:101A60000DB0BDE8F08F52460B9990476D1CF1E721
:101A700009280100941A0008000000204800000016
:101A800008190008DC1A00084800002000040000C3
:101A90001819000800000000000000000000344396
:101AA000101001344310100100000000000000007D
:101AB00000000000010203040102030406070809F4
:101AC0000204060800A24A04000000000000000012
:0C1AD000010203040607080900000000E2
:0400000508000131BD
:00000001FF
